:020000040000FA
:100000000C945E000C9486000C9486000C94860080
:100010000C9486000C9486000C9486000C945E026E
:100020000C9486000C9486000C9486000C94860038
:100030000C9486000C9486000C9486000C94860028
:100040000C9412030C9486000C94E0020C94BA02F7
:100050000C9486000C9486000C9486000C94860008
:100060000C9486000C948600000000080002010039
:100070000003040700000000000000000200000070
:1000800000250028002B0000000000240027002A83
:100090000004040404040404040202020202020331
:1000A000030303030301020408102040800102043B
:1000B000081020010204081020008B0511241FBE27
:1000C000CFEFD8E0DEBFCDBF11E0A0E0B1E0E6E2C7
:1000D000FEE002C005900D92A034B107D9F721E0EF
:1000E000A0E4B1E001C01D92A93FB207E1F710E022
:1000F000CEE5D0E004C02197FE010E940B07CD356C
:10010000D107C9F70E945C030C9411070C940000FE
:1001100090E0FC01EB55FF4F24918F569F4FFC015F
:100120008491882399F090E0880F991FFC01E9578A
:10013000FF4FA591B491FC01E358FF4F8591949135
:100140008FB7F894EC91E22BEC938FBF0895AF92A8
:10015000BF92CF92DF92EF92FF920F931F93CF93B4
:10016000DF936C017B018B01040F151FEB015E0116
:10017000AE18BF08C017D10759F06991D601ED91AB
:10018000FC910190F081E02DC6010995892B79F74A
:10019000C501DF91CF911F910F91FF90EF90DF90FC
:1001A000CF90BF90AF900895FC01538D448D252FC3
:1001B00030E0842F90E0821B930B541710F0CF9601
:1001C000089501970895FC01918D828D981761F033
:1001D000A28DAE0FBF2FB11D5D968C91928D9F5F4A
:1001E0009F73928F90E008958FEF9FEF0895FC0129
:1001F000918D828D981731F0828DE80FF11D858DDC
:1002000090E008958FEF9FEF0895FC01918D228D6E
:10021000892F90E0805C9F4F821B91098F739927F3
:1002200008958CE591E00E94050121E0892B09F4F5
:1002300020E0822F089580E090E0892B29F00E9431
:10024000110181110C9400000895FC01A48DA80FE8
:10025000B92FB11DA35ABF4F2C91848D90E0019608
:100260008F739927848FA689B7892C93A089B18928
:100270008C91837080648C93938D848D981306C0C9
:100280000288F389E02D80818F7D80830895EF922D
:10029000FF920F931F93CF93DF93EC0181E0888F40
:1002A0009B8D8C8D98131AC0E889F989808185FF10
:1002B00015C09FB7F894EE89FF896083E889F989B2
:1002C00080818370806480839FBF81E090E0DF91B4
:1002D000CF911F910F91FF90EF900895F62E0B8D07
:1002E00010E00F5F1F4F0F731127E02E8C8D8E11C2
:1002F0000CC00FB607FCFACFE889F989808185FF29
:10030000F5CFCE010E942501F1CFEB8DEC0FFD2F33
:10031000F11DE35AFF4FF0829FB7F8940B8FEA89E3
:10032000FB8980818062CFCFCF93DF93EC01888DF2
:100330008823B9F0AA89BB89E889F9898C9185FD60
:1003400003C0808186FD0DC00FB607FCF7CF8C91EE
:1003500085FFF2CF808185FFEDCFCE010E94250180
:10036000E9CFDF91CF91089590E0FC01E859FF4F6C
:100370002491FC01EB55FF4F3491FC01EF56FF4FE8
:10038000E491EE23C9F0222339F0233001F1A8F4DF
:10039000213019F1223029F1F0E0EE0FFF1FE35870
:1003A000FF4FA591B4918FB7F894EC91611126C0DD
:1003B00030953E233C938FBF08952730A9F0283015
:1003C000C9F0243049F7809180008F7D03C080916F
:1003D00080008F7780938000DFCF84B58F7784BDD6
:1003E000DBCF84B58F7DFBCF8091B0008F7780937A
:1003F000B000D2CF8091B0008F7DF9CF3E2BDACF05
:100400009091000189130BC0ECE7F0E0E4919FEFBD
:1004100090930001E13049F028F0E23061F060E0B3
:100420000C94B40110926E00FACF90916F009D7FF2
:1004300090936F00F4CF909170009D7F9093700027
:1004400091E09093B0009091B100987F9460909368
:10045000B1001092B300E3CF3FB7F894809145010B
:1004600090914601A0914701B091480126B5A89B03
:1004700005C02F3F19F00196A11DB11D3FBFBA2F36
:10048000A92F982F8827BC01CD01620F711D811DF6
:10049000911D42E0660F771F881F991F4A95D1F77B
:1004A0000895FC0101900020E9F73197AF01481B46
:1004B000590BBC018CE591E00C94A7001F920F92A0
:1004C0000FB60F9211242F933F934F935F936F9327
:1004D0007F938F939F93AF93BF93EF93FF938091FD
:1004E0004E0190914F01A0915001B0915101892B83
:1004F0008A2B8B2BD1F190914901E0914A01F09127
:100500004B0180818927808380914E0190914F011A
:10051000A0915001B0915101181619061A061B0638
:100520009CF480914E0190914F01A0915001B091A7
:1005300051010197A109B10980934E0190934F0198
:10054000A0935001B0935101FF91EF91BF91AF91F2
:100550009F918F917F916F915F914F913F912F91DB
:100560000F900FBE0F901F901895809100010E9470
:100570000002EACF1F920F920FB60F9211242F9311
:100580003F934F935F936F937F938F939F93AF931B
:10059000BF93EF93FF938CE591E00E942501FF91BB
:1005A000EF91BF91AF919F918F917F916F915F91EB
:1005B0004F913F912F910F900FBE0F901F90189564
:1005C0001F920F920FB60F9211242F938F939F9328
:1005D000EF93FF93E0916C01F0916D018081E091C8
:1005E0007201F091730182FD1BC0908180917501B1
:1005F0008F5F8F7320917601821741F0E091750132
:10060000F0E0E45AFE4F958F80937501FF91EF91D2
:100610009F918F912F910F900FBE0F901F90189563
:100620008081F4CF1F920F920FB60F9211242F9357
:100630003F938F939F93AF93BF938091410190918C
:100640004201A0914301B09144013091400123E067
:10065000230F2D3758F50196A11DB11D20934001A0
:100660008093410190934201A0934301B0934401D0
:100670008091450190914601A0914701B0914801B8
:100680000196A11DB11D8093450190934601A09351
:100690004701B0934801BF91AF919F918F913F91D6
:1006A0002F910F900FBE0F901F90189526E8230FE3
:1006B0000296A11DB11DD2CFCF93DF93CDB7DEB788
:1006C000A1970FB6F894DEBF0FBECDBF789484B566
:1006D000826084BD84B5816084BD85B5826085BD3E
:1006E00085B5816085BD80916E00816080936E00CC
:1006F00010928100809181008260809381008091BE
:10070000810081608093810080918000816080936E
:1007100080008091B10084608093B1008091B0002E
:1007200081608093B00080917A00846080937A0029
:1007300080917A00826080937A0080917A00816053
:1007400080937A0080917A00806880937A0010927A
:10075000C100E0916C01F0916D0182E08083E09135
:100760006801F09169011082E0916A01F0916B01DA
:100770008FEC808310927401E0917001F09171010F
:1007800086E08083E0916E01F0916F01808180614D
:100790008083E0916E01F0916F0180818860808399
:1007A000E0916E01F0916F01808180688083E0911B
:1007B0006E01F0916F0180818F7D80838AE00E94BD
:1007C00088008BE00E9488004BE9242E40E0342E04
:1007D000CC24CA94DC2C760125E420937C00809103
:1007E0007A00806480937A0080917A0086FDFCCF45
:1007F0008091780060917900762F682F072E000C89
:10080000880B990B0E94F00525E732E04AEF5EE382
:100810000E9454060E94B80570935B0160935A01D0
:1008200083E191E00E94510280905A0190905B0117
:10083000092C000CAA08BB08B7FE85C06DE28CE548
:1008400091E00E94470122273327A901281939097D
:100850004A095B0919A28E010F5D1F4FCA01B90138
:100860002AE030E040E050E00E94E906605DF801D7
:1008700062938F01211531054105510579F7011565
:10088000110519F0C8010E9451028BE191E00E940C
:1008900051028EE191E00E94510281E291E00E94BA
:1008A00051028EE191E00E9451020E942C024B0104
:1008B0005C0138EE432E33E0532E612C712C0E94E4
:1008C0002C02681979098A099B09683E73408105E1
:1008D0009105A8F3F1E04F1A51086108710828EE5C
:1008E000820E23E0921EA11CB11C4114510461042C
:1008F000710429F780915A0190915B0183970CF460
:10090000FEC061E08AE00E94B40161E08BE00E94D9
:10091000B401809100018A3071F5ECE7F0E01491A8
:1009200017FDC9C08AE00E948800112309F494C011
:10093000123009F0A5C08091B100887F8460809357
:10094000B10089EFCCC0A501940119A28E010F5D01
:100950001F4FCA01B9012AE030E040E050E00E9498
:10096000E906605DF80162938F01211531054105AB
:10097000510579F784CF8F3F09F09DC08AE08093BD
:100980000001ECE7F0E014911F3F09F494C011302E
:1009900019F148F0123009F43DC017FD8CC08AE00F
:1009A0000E948800C5CF14BC15BC84B5826084BD8C
:1009B00085B5816085BDF1018491E82FF0E0EE0FEF
:1009C000FF1FE358FF4F85919491EFEAF0E0849187
:1009D00080934D0110E0A6CF10928000109281000C
:1009E0008091810088608093810080918100816086
:1009F00080938100F1018491E82FF0E0EE0FFF1F5A
:100A0000E358FF4F85919491EFEAF0E08491809351
:100A10004C0188CF1092B0001092B1008091B000CC
:100A200082608093B0008091B10081608093B100BA
:100A3000F1018491E82FF0E0EE0FFF1FE358FF4F24
:100A40008591949190934B0180934A01EFEAF0E0F5
:100A500084918093490166CF85B5887F836085BD89
:100A600089EF87BDC0925601D0925701E09258019C
:100A7000F092590180916E00826080936E001BC0DD
:100A8000113031F580918100887F816080938100F1
:100A90008FE79EE39093890080938800C092520173
:100AA000D0925301E0925401F092550180916F0071
:100AB000826080936F00E0E0F0E0EF2B09F48CCED1
:100AC0000E941101882309F487CE0E94000084CE81
:100AD000123021F01111EFCF8FE7C3CF8FE7809352
:100AE000B300C0924E01D0924F01E0925001F092BB
:100AF000510180917000826080937000DCCF60E0D3
:100B00008AE00E94B40160E08BE00E94B4018AE0B8
:100B10000E940002D0CFECE5F1E01382128288EE51
:100B200093E0A0E0B0E084839583A683B78385E05B
:100B300091E09183808385EC90E09587848784ECB5
:100B400090E09787868780EC90E0918B808B81EC9A
:100B500090E0938B828B82EC90E0958B848B86EC7B
:100B600090E0978B868B118E128E138E148E0895C3
:100B70000E94BF056894B1110C944E0608950E941E
:100B8000330688F09F5798F0B92F9927B751B0F0E6
:100B9000E1F0660F771F881F991F1AF0BA95C9F701
:100BA00014C0B13091F00E944D06B1E008950C944C
:100BB0004D06672F782F8827B85F39F0B93FCCF3FF
:100BC000869577956795B395D9F73EF4909580957E
:100BD000709561957F4F8F4F9F4F0895E89409C09E
:100BE00097FB3EF490958095709561957F4F8F4F60
:100BF0009F4F9923A9F0F92F96E9BB279395F69576
:100C0000879577956795B795F111F8CFFAF4BB0FF3
:100C100011F460FF1BC06F5F7F4F8F4F9F4F16C057
:100C2000882311F096E911C0772321F09EE8872FE1
:100C3000762F05C0662371F096E8862F70E060E09D
:100C40002AF09A95660F771F881FDAF7880F969516
:100C5000879597F9089557FD9058440F551F59F0FF
:100C60005F3F71F04795880F97FB991F61F09F3F99
:100C700079F087950895121613061406551FF2CFC2
:100C80004695F1DF08C0161617061806991FF1CF12
:100C900086957105610508940895E894BB27662739
:100CA0007727CB0197F908950E9467060C94D80620
:100CB0000E94CA0638F00E94D10620F0952311F058
:100CC0000C94C1060C94C70611240C944E060E9485
:100CD0002B0670F3959FC1F3950F50E0551F629F4F
:100CE000F001729FBB27F00DB11D639FAA27F00D85
:100CF000B11DAA1F649F6627B00DA11D661F829FAC
:100D00002227B00DA11D621F739FB00DA11D621F90
:100D1000839FA00D611D221F749F3327A00D611DAD
:100D2000231F849F600D211D822F762F6A2F11248F
:100D30009F5750409AF0F1F088234AF0EE0FFF1FC2
:100D4000BB1F661F771F881F91505040A9F79E3F19
:100D5000510580F00C94C1060C944E065F3FE4F3FD
:100D6000983ED4F3869577956795B795F795E7956F
:100D70009F5FC1F7FE2B880F911D9695879597F978
:100D8000089597F99F6780E870E060E008959FEF0D
:100D900080EC089500240A94161617061806090612
:100DA000089500240A9412161306140605060895E1
:100DB000092E0394000C11F4882352F0BB0F40F469
:100DC000BF2B11F460FF04C06F5F7F4F8F4F9F4FA9
:100DD0000895A1E21A2EAA1BBB1BFD010DC0AA1F7C
:100DE000BB1FEE1FFF1FA217B307E407F50720F094
:100DF000A21BB30BE40BF50B661F771F881F991F0F
:100E00001A9469F760957095809590959B01AC0157
:100E1000BD01CF010895EE0FFF1F0590F491E02D65
:100E20000994F894FFCFFF000000004701A700D409
:100E30000094010501E300F70053756875203A201E
:100E4000002043000D0A006D65727570616B616E64
:100E500020737568752079616E67207465726465AA
:060E600074656B7369006C
:107E0000112484B714BE81FFF0D085E080938100F7
:107E100082E08093C00088E18093C10086E0809377
:107E2000C20080E18093C4008EE0C9D0259A86E02C
:107E300020E33CEF91E0309385002093840096BBD3
:107E4000B09BFECF1D9AA8958150A9F7CC24DD24C4
:107E500088248394B5E0AB2EA1E19A2EF3E0BF2EE7
:107E6000A2D0813461F49FD0082FAFD0023811F036
:107E7000013811F484E001C083E08DD089C08234E0
:107E800011F484E103C0853419F485E0A6D080C0E4
:107E9000853579F488D0E82EFF2485D0082F10E0AE
:107EA000102F00270E291F29000F111F8ED06801E7
:107EB0006FC0863521F484E090D080E0DECF843638
:107EC00009F040C070D06FD0082F6DD080E0C81688
:107ED00080E7D80618F4F601B7BEE895C0E0D1E017
:107EE00062D089930C17E1F7F0E0CF16F0E7DF06D8
:107EF00018F0F601B7BEE89568D007B600FCFDCFD4
:107F0000A601A0E0B1E02C9130E011968C91119780
:107F100090E0982F8827822B932B1296FA010C0160
:107F200087BEE89511244E5F5F4FF1E0A038BF0790
:107F300051F7F601A7BEE89507B600FCFDCF97BE46
:107F4000E89526C08437B1F42ED02DD0F82E2BD052
:107F50003CD0F601EF2C8F010F5F1F4F84911BD097
:107F6000EA94F801C1F70894C11CD11CFA94CF0C13
:107F7000D11C0EC0853739F428D08EE10CD085E9AC
:107F80000AD08FE07ACF813511F488E018D01DD067
:107F900080E101D065CF982F8091C00085FFFCCF94
:107FA0009093C60008958091C00087FFFCCF809118
:107FB000C00084FD01C0A8958091C6000895E0E648
:107FC000F0E098E1908380830895EDDF803219F02E
:107FD00088E0F5DFFFCF84E1DECF1F93182FE3DFCA
:107FE0001150E9F7F2DF1F91089580E0E8DFEE27F6
:047FF000FF270994CA
:027FFE00040479
:00000001FF
